:020000040800F2
:1000000070080020C10100084B2D00085123000892
:10001000492D00081D0500086F3100080000000090
:10002000000000000000000000000000ED2F0008AC
:100030001F050008000000004D2D0008EF2F0008EC
:10004000DB010008DB010008DB010008DB01000820
:10005000DB010008DB01000821050008DB010008C6
:10006000DB010008DB010008DB010008DB01000800
:10007000DB010008DB010008DB010008DB010008F0
:10008000DB010008DB010008DB010008DB010008E0
:10009000DB010008DB010008DB010008DB010008D0
:1000A000DB010008DB010008DB010008DB010008C0
:1000B000DB010008DB010008DB010008DB010008B0
:1000C000DB010008DB010008DB010008DB010008A0
:1000D000DB010008DB010008DB010008DB01000890
:1000E000DB010008512D0008DB01000800F002F8D8
:1000F00000F03CF80AA090E8000C82448344AAF186
:100100000107DA4501D100F031F8AFF2090EBAE883
:100110000F0013F0010F18BFFB1A43F0010318473B
:100120002041000040410000103A24BF78C878C147
:10013000FAD8520724BF30C830C144BF04680C60ED
:10014000704700000023002400250026103A28BF35
:1001500078C1FBD8520728BF30C148BF0B60704739
:100160001FB500F062F81FBD10B510BD00F007F913
:100170001146FFF7F5FF03F073F800F025F903B41B
:10018000FFF7F2FF03BC00F02FF900000B49D1F894
:1001900000C04A685CF8043B1068184442F8040B3D
:1001A0008C4528BFA1F1DC0C8A4228BFA1F1DC02FA
:1001B000C1F800C04A6020F000407047F400002001
:1001C0000948804709480047FEE7FEE7FEE7FEE7EB
:1001D000FEE7FEE7FEE7FEE7FEE7FEE70448054927
:1001E000054A064B7047000073300008ED00000818
:1001F00070020020700800207004002070040020AD
:100200000B4910B5A1F17C020A4CC2E93712372123
:1002100006E000EB104342F82130074B00FB03409F
:100220000B1EA1F10101F4DC10BD0120E8E7000084
:1002300094000020E119D666CD0D0100032A40F29A
:10024000308010F0030C00F0158011F8013BBCF178
:10025000020F624498BF11F801CB00F8013B38BF90
:1002600011F8013BA2F1040298BF00F801CB38BF9E
:1002700000F8013B11F0030300F04F80083AC0F092
:10028000088051F8043B083A51F804CBA0E8081064
:10029000F5E7121D5CBF51F8043B40F8043BAFF397
:1002A0000080D20724BF11F8013B11F801CB48BFF1
:1002B00011F8012B24BF00F8013B00F801CB48BF27
:1002C00000F8012B70474FF0000200B5134694462A
:1002D0009646203922BFA0E80C50A0E80C50B1F19E
:1002E0002001BFF4F7AF090728BFA0E80C5048BFB2
:1002F0000CC05DF804EB890028BF40F8042B08BF50
:10030000704748BF20F8022B11F0804F18BF00F84B
:10031000012B704770477047704710B5203AC0F006
:100320000B80B1E81850A0E81850B1E81850A0E8C8
:100330001850203ABFF4F5AF5FEA027C24BFB1E861
:100340001850A0E8185044BF18C918C0BDE81040A4
:100350005FEA827C24BF51F8043B40F8043B08BFAD
:100360007047D20728BF31F8023B48BF11F8012B74
:1003700028BF20F8023B48BF00F8012B70477546A4
:1003800000F02CF8AE4605006946534620F0070001
:10039000854618B020B5FFF721FFBDE820404FF09B
:1003A00000064FF000074FF000084FF0000BAC467E
:1003B000ACE8C009ACE8C009ACE8C009ACE8C009C9
:1003C00021F007018D46704710B50446AFF3008059
:1003D0002046BDE81040FFF7D2BE0000004870473D
:1003E000FC0000207047000001491820ABBEFEE76A
:1003F000260002002DE9F04385B08146282088467A
:1004000000F096F83F48642401250DF10D06702197
:1004100071220123CDE90065029400F0D7FC9DF81C
:100420000D00000711D400208DF80F0040F6BE002B
:10043000ADF80D0033480DF10D0270210323009437
:1004400000F0F4FB0A2000F073F800202D4F8DF827
:100450000F0043F2AC30ADF80D0038467021324643
:100460000323009400F0E2FB502000F061F83846CE
:10047000702171220123CDE90065029400F0A6FCF1
:10048000012000F055F89DF90D000028EFD46420FC
:1004900000901C480DF10D027021072300F00CFAAA
:1004A0009DF811009DF8105000029DF8121065F3A0
:1004B00013409DF80E409DF80F60084403F0A8FB20
:1004C000114B002203F0B8FB104B002203F0B4FBE9
:1004D0000F4B002203F056F903F022F9C9F800008F
:1004E000300240EA04402844000903F091FB094A25
:1004F000094B03F0EFF903F013F9C8F8000005B059
:10050000BDE8F083A80100200000B03E0000694073
:10051000000049C07B14AE47E17AC440FEE7704753
:10052000012000F01FB8EFF3108072B6FEE7000064
:10053000B0B5044600F0FEF805460548611C007899
:1005400018BF044400F0F6F8401BA042FAD3B0BD37
:1005500000000020012802D10148012101707047EC
:100560007001002003490A68024214BF0860704706
:10057000FFF7F0BF140401402DE9FC4F594A042352
:100580004FF0000B4FF001084FF00F0E4FF0000935
:100590000025904208BF032300930B6833FA05F24D
:1005A00008BFBDE8FC8F08FA05F2134200F0968000
:1005B0004F68032F16D9112F24D0122F26D04D4B60
:1005C0009F4213D04C4B9F4210D04C4B9F420DD0BA
:1005D0004B4B9F420AD04B4B9F4207D04A4B9F4206
:1005E00004D020E0DFE807F00216191D8B6833B154
:1005F000012B14BF426102614FF0080913E04FF074
:10060000040910E0CB6803F104090CE0CB6803F1A6
:100610000C0908E0D1F80C9005E0CB6803F108095B
:1006200001E04FF000095B460646082D28BF203B3D
:1006300028BF043637680EFA03F427EA040409FADF
:1006400003F323433360CB79DB0647D5284B264E93
:100650001C461B68A6F57E7643F0010323602368E1
:100660000BF00C0C03F001030193019CAC0856F84D
:1006700024700EFA0CF327EA030A244B984208D0A0
:10068000234B984207D0234B9842009B08BF02237C
:1006900002E0002300E0012303FA0CF343EA0A031B
:1006A00046F824304F68104CFB02A36854BF9343B4
:1006B00013430E4EA360BB02336854BF93431343EE
:1006C0003360BB03636854BF934313436360FB030E
:1006D000236854BF23EA02021A4322600BF1040B81
:1006E00001355AE700140140000401400C040140A8
:1006F000181002400000111000001210000021101C
:1007000000002210000031100000321000080140EB
:10071000000C014000100140C26802EA010391434D
:1007200041EA034101617047002A08BF09040161E1
:100730007047000001480068704700BF6802002051
:10074000F8B560B3044690F83D0028B9002084F85D
:100750003C00204600F090FC242084F83D002068F6
:10076000016821F001010160016841F4004101606C
:10077000016821F40041016000F0BCFE49494A4B88
:10078000002288424FF0000138BF0121984238BF53
:1007900001226368454DAB4238BF0A460AB10120C9
:1007A000F8BD4349434EB0FBF1F22168B3424D68B6
:1007B00025F03F0545EA02054D600D6A25F03F052D
:1007C00011D801322A430A625A000138B0FBF2F014
:1007D0004CF6FF7301306FF31F30042898BF0420DC
:1007E000CA699A4337E04FF4967672434FF47A76AB
:1007F000B2FBF6F2013801322A430A62CA694CF6AA
:10080000FF75AA43A56845B119265E43B0FBF6F60D
:100810000427013667F31F3606E003EB4306B0FBFF
:10082000F6F601366FF31F36360509D055B1192596
:100830006B43B0FBF3F00423013063F31F3008E097
:10084000012008E003EB4303B0FBF3F001306FF34A
:100850001F3040F400401043C861E0690A6804F1A9
:100860000C0622F0C0021043226A10430860886818
:1008700048F2FF3290436CCE184310438860C8683A
:1008800020F0FF0028433043C860086840F00100B2
:10089000086000202021206484F83D10206384F843
:1008A0003E00F8BD80841E0000093D00A1860100C5
:1008B00040420F00A08601002DE9FE4F04460020B3
:1008C0001D4617468B460190FFF734FF814694F88A
:1008D0003D0020280ED1D44E204606F5702101227D
:1008E0001923CDF8009001F0F9FD18B994F83C00F7
:1008F000012802D10220BDE8FE8F012084F83C00CF
:1009000020680168C90703D1016841F00101016055
:100910000168A6F1021221F400610160222184F82D
:100920003D10102184F83E10002121646585618D01
:10093000E26267622185E16A0268DDF8308035464F
:1009400042F4806211F5803F026018BF01293AD15C
:10095000016841F48071016020464FF001110022CE
:100960004346CDF8009001F0B9FD48B12068006819
:10097000C00544BF4FF4007020640120BDE8FE8F25
:100980002069B0F5804F24D14BF00100C0B221683E
:1009900042460861204629464B4601F0E6FD002804
:1009A000EBD1218D01294BD000295FD1002002908D
:1009B000206841690291816902910299016841F4BC
:1009C0000071016074E00829C2D0216B1129BFD0E9
:1009D000C2E706202F4600EADB15216805F1F0008A
:1009E0000861B91D204642464B4601F0BEFD002875
:1009F000C3D120685FFA8BF1016120463946424637
:100A00004B4601F0B2FD0028B7D1002002902068CB
:100A1000002241694346029181690291029901686D
:100A200041F48071016020464FF00111CDF8009033
:100A300001F054FD002899D145F0F1003546A6E7B4
:100A40002068016821F480610160EFF3108072B6C4
:100A50000020029020684169029181690291029907
:100A6000016841F40071016062B621E0206802294A
:100A7000026813D142F400610160EFF3108072B696
:100A800000200290206841690291816902910299D7
:100A9000016821F48061016062B609E042F480617E
:100AA00001600021029141690291806902900298DF
:100AB000208DDFF8E8ADAF1C46F2A81B232501040A
:100AC00000F0A88086B2032E0AD8012E2BD1204632
:100AD00041464A4601F099FD002800F07E804CE72F
:100AE000204641464A4601F090FD00287FF445AF7C
:100AF0002068616A00690870608D01386085606AED
:100B00002168421C6262208D013820854B695B0799
:100B1000D5D580B2032803D1086820F4806008602E
:100B2000086910705DE02046394600224346CDF842
:100B3000009001F0D3FC022E18D100287FF41DAFE5
:100B4000EFF3108072B62068616A026842F40072A6
:100B5000026000690870606A01306062608D01386F
:100B60006085208D0138208562B636E000287FF44C
:100B700004AF2068016821F480610160EFF3108008
:100B800072B62068616A00690870608D01386085FE
:100B9000606A01306062218D01392185DAF8001028
:100BA000B1FBFBF16943019101990139019101996F
:100BB00009B321684A695207F6D50A6842F40072FF
:100BC0000A6009690170606A01306062208D013835
:100BD0002085608D0138608562B62068616A006991
:100BE0000870606A01306062208D01382085618D57
:100BF0000139618563E700202021206384F83D10DE
:100C000084F83E00216C41F02001216462B684F832
:100C10003C00B2E6202084F83D00002084F83C002F
:100C200084F83E00BDE8FE8F020001002DE9FC477C
:100C30001F46164689460446FFF77CFD824694F817
:100C40003D0020280ED1604D204605F5702101227F
:100C50001923CDF800A001F041FC18B994F83C002C
:100C6000012802D10220BDE8FC87012084F83C0065
:100C700020680168C90703D1016841F001010160E2
:100C80000168A5F1021221F400610160212184F8BC
:100C90003D10102184F83E10002121646785618D8C
:100CA000E26266622185E16ADDF8288011F5803F05
:100CB00018BF01291BD1016841F4807101602046F1
:100CC0004FF0011100224346CDF800A001F006FCD0
:100CD00038B120680068C00544BF4FF4007020643C
:100CE00024E02069B0F5804F07D1FE2013E00829E9
:100CF000E1D0216B1229DED0E1E7062000EAD9100D
:100D00002168F0300861A91D20464246534601F093
:100D10002CFC58B9FF20216800EA09000861204630
:100D200029464246534601F020FC10B10120BDE89F
:100D3000FC87002001902068416901918069019041
:100D40000198208D88B320464146524601F090FC20
:100D500010BB606A2168024612F8013B0B61638D8B
:100D6000013B63856262228D561E26854B693604DF
:100D700018BF13F0040308D0437802300B6160629F
:100D8000901E2085608D0138608520464146524680
:100D900001F07AFB0028D4D0206C0428C6D120684A
:100DA000016841F400710160C0E72068016841F406
:100DB00000710160202084F83D00002084F83C0090
:100DC00084F83E00BDE8FC87020001002DE9F04FE9
:100DD00085B0044600201F4616460D460490FFF7D6
:100DE000A9FC814694F83D0020280CD19F4920465B
:100DF00001221923CDF8009001F070FB18B994F886
:100E00003C00012803D1022005B0BDE8F08F01228B
:100E100084F83C2022680DF13808136898E8030133
:100E2000DB0703D1136843F001031360136823F455
:100E300000631360222284F83D20402284F83E2083
:100E40000022226461856062608D89493246E162D8
:100E50002085204629463B46CDE9008901F092FADB
:100E6000002840F0F880218D01290DD011BB002011
:100E70000390206841690391816903910399016896
:100E800041F40071016037E02068016821F480615D
:100E90000160EFF3108072B6002003902068416972
:100EA0000391816903910399016841F40071016024
:100EB00062B621E020680229026813D142F4006181
:100EC0000160EFF3108072B6002003902068416942
:100ED0000391816903910399016821F480610160A4
:100EE00062B609E042F4806101600021039141692A
:100EF0000391806903900398208D5E4FDFF89CA9D1
:100F000046F2A81B2325010400F0A78086B2032E19
:100F10000AD8012E2BD1204641464A4601F075FBE6
:100F2000002800F07C8096E0204641464A4601F0C9
:100F30006CFB002840F08F802068616A00690870AF
:100F4000608D01386085606A2168421C6262208D74
:100F5000013820854B695B07D5D580B2032803D1C2
:100F6000086820F480600860086910705BE0204623
:100F7000394600224346CDF8009001F0AFFA022E28
:100F800017D1002867D1EFF3108072B62068616A2C
:100F9000026842F40072026000690870606A013001
:100FA0006062608D01386085208D0138208562B6D1
:100FB00035E000284FD12068016821F4806101608C
:100FC000EFF3108072B62068616A00690870608D66
:100FD00001386085606A01306062218D01392185A8
:100FE000DAF80010B1FBFBF169430491049901396F
:100FF0000491049909B321684A695207F6D50A6831
:1010000042F400720A6009690170606A013060622E
:10101000208D01382085608D0138608562B620689A
:10102000616A00690870606A01306062208D013871
:101030002085618D0139618565E7002020212063CD
:1010400084F83D1084F83E00216C41F020012164B9
:1010500062B684F83C000120D6E6202084F83D00EA
:10106000002084F83C0084F83E00CDE60200100029
:101070000000FFFF0400010010B586B00021CDE99B
:101080000411CDE902110168114881421DD13C4C87
:1010900000F53840216841F008012160216801F025
:1010A000080101910321059112210391C0210291B0
:1010B000019902A9FFF760FA606840F400106060CF
:1010C000606800F400100190019806B010BD00BFE8
:1010D000005400401B48034900780A681044086027
:1010E000704700BF6802002080B50748016841F0E2
:1010F00010010160032000F071F80F2000F006F8E5
:1011000000F022F8002080BD0020024070B50D4E96
:10111000044630784FF47A71B1FBF0F0F349096876
:10112000B1FBF0F001F000F901250F2C08D838B917
:101130004FF0FF3021460022002500F033F87460A4
:10114000284670BD0000002082B00D4802220168D0
:1011500041F001010160016801F001010191019973
:10116000416841F080514160406800F0805000903B
:1011700000980448016862F31A61016002B0704788
:101180001810024004000140002808D400F01F019C
:10119000012202FA01F1024A400942F82010704788
:1011A00000E100E0B0B5134B4FF0FF351B68C3F30F
:1011B0000223DC1E83F0070338BF0024042B28BF62
:1011C000042305FA03F3994305FA04F3A1409A4373
:1011D0001143BDE8B04001F0CBBF00BF05494FF659
:1011E000FF030A681A4060F30A22034810430860AC
:1011F000704700BF0CED00E00000FA050148012136
:101200000160704720000E4280B5012811D00228ED
:1012100029D0102825D125494A680868C00120D561
:10122000C2F3834022A3185CD2032DD4D04A50438A
:1012300033E01E4840F20232016A0A40B2F5817F73
:1012400004BF4FF4004080BD01F44071B1F5407F10
:1012500013D0B1F5007F04D1406A49F640418007C0
:101260000FE0002080BD00F04FF9104902224968CC
:10127000C1F3813102EB410114E000684FF22441D7
:10128000800301EAE07080BD4A680DA3C2F34042CA
:101290009A5CB14BB3FBF2F250434968490203D464
:1012A00040000321B0FBF1F080BD00BF0010024000
:1012B00002030405060708090A0B0C0D0E0F101097
:1012C000010200002DE9FC4104460078A14EC00750
:1012D00058D0B069C0000BD4B0694FF0010840F09D
:1012E0008050B061B06900F080500190019801E039
:1012F0004FF000082D4F3868C00511D4386840F40D
:1013000080703860FFF716FA05463868C00507D4C4
:10131000FFF710FA401B6428F7D90320BDE8FC81D1
:10132000F06910F440701FD0616801F44071884288
:101330001AD01F49F06901220A6000220A6020F4D5
:101340004071C007F1610FD0FFF7F4F9054641F293
:101350008837F069800707D4FFF7ECF9411B0320B9
:10136000B942F6D9BDE8FC816068F169B8F1000FB7
:1013700021F4407140EA0100F06103D0B06920F02F
:101380008050B0612068810705D5A168326822F4D9
:10139000404211433160C00605D5E068316821F450
:1013A0008001084330600020BDE8FC8100700040EF
:1013B000400442422DE9F843002800F0908088461E
:1013C00048490446086800F0070040450AD208680A
:1013D00020F0070040EA08000860086800F00700F5
:1013E00040457CD120685B4B8946810711D5410778
:1013F00003D5196841F4E0611960010703D5196844
:1014000041F460511960A1681A6822F0F00211439A
:101410001960C0072BD06068012804D153F8041C60
:10142000890309D45BE053F8041C022802D1890126
:1014300002D454E0890752D519681D4621F00301F2
:1014400008431860FFF776F9064641F2883760686E
:1014500029682B4601F00C01B1EB800F07D0FFF794
:1014600069F9801BB842F2D90320BDE8F883D9F8A6
:10147000000000F0070040450DD9D9F8000020F029
:10148000070040EA0800C9F80000D9F8000000F0A1
:101490000700404523D12068410705D5E1681A6857
:1014A00022F4E06211431960000706D5206919682B
:1014B00021F4605141EAC00018601C4600F030F889
:1014C0002168094AC1F30311515CC840F34908601F
:1014D00007480068FFF71AFE0020BDE8F8830120E6
:1014E000BDE8F88300200240284200080C000020DC
:1014F00004000020E948174900680968074AC1F359
:101500000221515CC8407047E448124900680968EC
:10151000024AC1F3C221515CC840704738420008FA
:1015200010B50C490C480A6802F00C03082B07D1CF
:10153000C2F3834309A4E35CD20302D40C485843AA
:1015400010BD096809A2C1F34041515C5843B0FB8A
:10155000F1F010BD0410024000127A0002030405ED
:10156000060708090A0B0C0D0E0F101001020000EF
:1015700000093D002DE9FC41002800F0CC80044624
:101580000078C44EC0074AD0706800F00C000428F0
:1015900017D0706800F00C00082802D17068C003F2
:1015A0000FD4606898B1B0F5803F06D03168B0F5CF
:1015B000A02F21D141F480203060306840F4803089
:1015C00020E0306880032AD5606840BBA3E0306823
:1015D00020F480303060306820F480203060FFF7E5
:1015E000A9F805463068800319D5FFF7A3F8411B19
:1015F00003206429F6D94AE121F480303060306854
:1016000020F480203060FFF795F8054630688003AD
:1016100005D4FFF78FF8401B6428F7D90AE120783A
:1016200080072CD5706810F00C0F07D0706800F0A0
:101630000C00082809D17068C00306D43068800700
:1016400016D52069012813D065E021699248002948
:1016500000F0B58001210160FFF76CF805463068A5
:10166000800705D4FFF766F8401B0228F7D9E1E0B0
:101670006069316821F0F80141EAC00030602078EB
:1016800000072ED5A06978B183480121C0F88014E5
:10169000FFF750F80546706A800715D4FFF74AF83F
:1016A000401B0228F7D9C5E07B480021C0F8801410
:1016B000FFF740F80546706A800712D5FFF73AF841
:1016C000401B0228F7D9B5E074484FF4FA5100687E
:1016D000B0FBF1F0019000BF0198411E002801917C
:1016E000F9D12078400719D4E769002F00F0CE80A7
:1016F000706800F00C00082843D1012F0BD0216A3C
:10170000706800F480328A4205D1616A00F470107A
:10171000884200F0BB800120BDE8FC81F069C00078
:101720000BD4F0694FF0010840F08050F061F0698F
:1017300000F080500090009801E04FF00008584FF2
:101740003868C0050FD4386840F480703860FEF700
:10175000F1FF05463868C00505D4FEF7EBFF401BD6
:101760006428F7D966E0E068C8B3012805D0316A7B
:1017700005284BD141F004003062306A40F001008E
:101780004AE04549002088460866FEF7D3FF054633
:10179000022F0AD147463068800157D5FEF7CAFFAD
:1017A000411B03200229F6D971E0306880016DD514
:1017B000FEF7C0FF411B03200229F6D967E0002194
:1017C0000160FEF7B7FF0546306880077FF557AF29
:1017D000FEF7B0FF411B03200229F5D957E0306A1C
:1017E00020F001003062306A20F004003062FEF721
:1017F000A1FF054641F28837306A80071DD5FEF704
:1018000099FF411B0320B942F6D940E021F00100C5
:101810003062306A20F004003062FEF78BFF05462C
:1018200041F28837306A800707D4FEF783FF401BF8
:10183000B842F7D90320BDE8FC81B8F1000F3FF4AE
:1018400053AFF06920F08050F0614DE7206AB0F5A9
:10185000803F05D1A168726822F4003211437160A3
:10186000616A0843716821F47411084370600120B3
:101870003866FEF75FFF04463068800106D4FEF745
:1018800059FF011B03200229F6D900E00020BDE822
:10189000FC8100BF00100240000042420C0000200A
:1018A000007000407047000010B5044600680168F1
:1018B000890744BF40685FEA807006D407484FF448
:1018C000003101600120607410BD2046FFF7EAFF7F
:1018D0002068416821F002014160EFE714040140F3
:1018E0002DE9FC41064600208DF80600ADF8040005
:1018F000012006B30C46F1B1154601A9304600227D
:1019000000F01CF810B10120BDE8FC81317B777B31
:1019100096F80E80F07B2170E070677084F802808A
:1019200045B1664DA847E0703846A847607040460C
:10193000A847A0700020BDE8FC8100BF2DE9F84356
:1019400006460120002E51D00C4600294ED03068AA
:101950004068400752D43046904601F042FA4FF4B6
:101960006161B0FBF1F23C2502FB11018BB2B3FBCC
:10197000F5F36370C3EB0313A1EB8301A170EA4994
:10198000884224D31823B2FBF3F3B0FBF1F503EB49
:101990004303A2EBC302227032684749136A526ABA
:1019A00005FB010992B242EA0342171A98BF4FF0B1
:1019B000FF3730464946531C08BF174601F05DFA11
:1019C000E0B9781C14D007EB0901304613E022700F
:1019D000B8F1000F09D02078384DA8472070607802
:1019E000A8476070A078A847A0700020BDE8F883E1
:1019F00030464FF0FF3101F02CFA10B10120BDE864
:101A0000F883737BB77BF07B4FF0010941F2AA5258
:101A10004FF0640E4FF4C87C002D43D00C2B13D82C
:101A200009FA03F1114206D01E2F09D90C2B09D156
:101A30000130012307E011F4256F07D01D2F01D8D5
:101A4000013701E001330127013DE5E7022BFBD11E
:101A50001B2F01D8013707E01D2F07D01C2F03D102
:101A6000810706D0002313E00223EDE701270323BB
:101A7000EAE783B2B3FBFEF101FB1E3109B101239A
:101A800006E0B3FBFCF101FB1C31B1FA81F14B091B
:101A9000002B4FF01D074FF0020308BF012708BFBE
:101AA0000323D1E7D9B2FAB2B7737373F07301F0BD
:101AB000A7F930738CE700BF80AEFEFF5D2D0008F4
:101AC000B0B5C8B30446407C20B90020207420463D
:101AD00000F040F802206074204600F027F938BB7F
:101AE000204601F04FF918BB2168A0684A6822F02F
:101AF00007024A60164A18B1536823F00103536085
:101B0000136823F46073184310606068421C06D1A8
:101B100001200125FFF778FB58B121680138C0F397
:101B2000034280B28A60C860204601F042F930B1B9
:101B300001250420607400E001252846B0BD40F274
:101B40000110A4F80D0000250120E573F2E700BFA5
:101B50002C6C0040E0B500680E49884218BF8CBD6F
:101B6000FFF74CFB0C480022016841F00061016066
:101B70000068012100F000600190019807480160B1
:101B800029200021FFF70EFB2920BDE88C40FFF73C
:101B9000FBBA00BF002800401C1002403C04424237
:101BA00070B504460120002C59D00D46002956D0AE
:101BB000217C0220012952D0607401202074E87831
:101BC000BAB100F00F010009AA7800EB800001EB28
:101BD0004000697802F00F03120902EB820203EB66
:101BE000420201F00F03090901EB810103EB4101FE
:101BF00001E06978AA78A2736173E073C0B2C9B2D8
:101C0000D2B201F0FDF820732870204601F0E9F807
:101C1000134988421FD3444EB0FBF6F101FB160571
:101C20002046294601F029F928B10020207404201B
:101C30006074012070BD2068016A406A80B240EA89
:101C40000140411C07D0A84205D28119204601F06D
:101C500000F90028E9D1002001212074617470BDD1
:101C6000905F0100B0B504460120002C5AD0002935
:101C700058D0237C0220012B54D0607401202074A2
:101C8000087802B300F00F02000900EB800002EBBD
:101C90004000C0B24FF4616250434A78897802F044
:101CA0000F03120902EB820203EB4202D2B2C2EB33
:101CB000021200EB820001F00F02090901EB810121
:101CC00002EB410108E04FF4616250434A788978A1
:101CD000C2EB021200EB8200C9B245182046294629
:101CE00001F0CBF828B1002020740420607401209A
:101CF000B0BD2068416821F005014160016A406A79
:101D000080B240EA0140411C08D0A84206D20649F0
:101D10000144204601F09DF80028E4D10020012173
:101D200020746174B0BD00BF80510100B0B5A0B196
:101D300004460068416821F008014160FEF7FAFCA2
:101D4000054620684068000709D4FEF7F3FC401BF5
:101D5000B0F57A7FF5D90320B0BD0120B0BD0020D9
:101D6000B0BD90F851007047F8B538B10446406AEC
:101D700030B10020206104F1140007E001254AE0A1
:101D80006068B0F5827F03D004F11C00002101607F
:101D90000025A56294F8510000284FF0000007D1FB
:101DA000204684F8505000F039F8A06A00F4005042
:101DB000022184F8511094E84E0002F482720F68F8
:101DC00003F4044327F040070F601A4406F400634D
:101DD0001A44236903F002031A44636903F0010300
:101DE0001A44A36903F400763244E66906F0380623
:101DF0003244266A06F0800632431043086004200D
:101E000000EA13404860C86920F40060C8610120FE
:101E1000656584F851002846F8BD000070B586B0AD
:101E20000026CDE90466CDE90266174C006804F58A
:101E30002051884225D1154802AD016841F48051F6
:101E40000160016801F4805101910199016841F03C
:101E5000040101600068294600F00400019003209D
:101E6000059002200390A020029001982046FEF7E2
:101E700083FB4020CDE90366029020462946FEF709
:101E80007BFB06B070BD00BF000801401810024087
:101E90002DE9FC41044690F85100012817D16068F3
:101EA0001D4617460E46B0F5827F02D1A068002875
:101EB0007BD0FEF73FFC80460120002E00F088809A
:101EC000002F00F0858094F85000012802D10220F4
:101ED000BDE8FC81042084F85100002001216065E8
:101EE000E78784F85010A787A663A0862063C4E91B
:101EF0001000E086A1682068B1F5004F07D10168A5
:101F000021F040010160016821F480410160016815
:101F1000490603D4016841F040010160E0686E1C8D
:101F200060B3E08F68B320688168C90708D1FEF705
:101F300001FC002EF5D0A0EB0800A842F1D340E050
:101F4000A16BC06821F8020BA163E08F0138E08724
:101F5000E7E720688168C90707D1FEF7EBFB6EB1A0
:101F6000A0EB0800A84209D32BE0007BA16B08700E
:101F7000A06B0130A063E08F0138E087E08F00287C
:101F8000E7D120462946424600F08BFF08B12020C9
:101F90006065012084F85100002084F85000606DD5
:101FA000002818BF0120BDE8FC81042084F85100FE
:101FB0002046314632463B46009500F0C2F8BDE867
:101FC000FC81002084F85000012084F85100032097
:101FD000BDE8FC812DE9FC411D4616460F4604462E
:101FE000FEF7A8FB804694F8510001280AD1012091
:101FF000002F00F09B80002E00F0988094F8500095
:10200000012802D10220BDE8FC81032084F85100A0
:10201000002001216065E68684F85010A6862763BB
:10202000A087A063C4E91000E087A1682068B1F52B
:10203000004F07D1016821F040010160016841F4BF
:10204000804101600168490603D4016841F0400104
:1020500001606168731EE268B1FA81F1B3FA83F33B
:1020600049095B091943B2F5006F20D131B137F846
:10207000021BC1602763E08E0138E0866E1CE08E93
:10208000C0B320688168890708D4FEF753FB002E8F
:10209000F5D0A0EB0800A842F1D349E0216B31F85C
:1020A000022BC2602163E08E0138E086E7E739B198
:1020B00039780173206B01302063E08E0138E086AF
:1020C0006E1CE08EB0B120688168890708D4FEF7E5
:1020D00031FB002EF5D0A0EB0800A842F1D327E099
:1020E000216B09780173206B01302063E08E013889
:1020F000E086E6E720462946424600F0FCFE08B1AD
:1021000020206065A06838B9002001902068C1686F
:102110000191806801900198012084F8510000200D
:1021200084F85000606D002818BF0120BDE8FC81D4
:10213000002084F85000012084F851000320BDE8FD
:10214000FC812DE9F8431E4615460F460446FEF76E
:10215000F1FA94F85110814601296DD10120002F28
:1021600075D0002D73D0002E71D094F85000012846
:102170006FD0012084F8500094F8510004281CBF4F
:10218000052084F8510000206065E687E686A56397
:10219000A6872763C4E91000A6862068016849065F
:1021A00003D4016841F0400101606168731EE26878
:1021B000B1FA81F1B3FA83F3DDF8208049095B09B4
:1021C0001943B2F5006F47D131B137F8021BC16036
:1021D0002763E08E0138E086012608F10105E08ED4
:1021E00010B9E08F00287AD02068816889070CD563
:1021F000E18E012E09D141B1216B002631F8022B6D
:10220000C2602163E18E0139E1868168C9070AD085
:10221000E18F41B1A16BC068012621F8020BA163D7
:10222000E08F0138E087FEF785FA002DD7D0A0EBCC
:1022300009004045D3D349E06068B0F5827F08D1FA
:102240000220042903D1A16800293FF487AFBDE82B
:10225000F8830220BDE8F88339B139780173206B27
:1022600001302063E08E0138E086012608F1010587
:10227000E08E08B9E08F90B32068816889070ED599
:10228000E18E012E0BD151B1216B0026097801732B
:10229000216B206801312163E18E0139E18681687B
:1022A000C9070BD0E18F49B1A16BC0680126087046
:1022B000A06B0130A063E08F0138E087FEF73AFAA7
:1022C000002DD5D0A0EB09004045D1D3002084F8E3
:1022D0005000012084F851000320BDE8F883204617
:1022E00041464A4600F007FE38B1002084F850000D
:1022F000202060650120BDE8F883A06838B900207F
:1023000000902068C16800918068009000980120CA
:1023100084F85100002084F85000606D002818BF38
:102320000120BDE8F8830000411E0020B0EB116FD2
:102330001CBF01207047044AF023516003490B7011
:10234000072190601160704710E000E023ED00E08D
:10235000FEE70268516949054FF000010FD56FF49F
:10236000806353612022016380F83D2080F83E1095
:1023700080F83C10016C41F0040101640121084621
:10238000704700002DE9FC4B044600680E460168CA
:10239000DDF8289041F4806101600168DDF82C804F
:1023A00041F480711D461746016020464FF001112F
:1023B00000224B46CDF8008000F090F848B120682C
:1023C0000068C00544BF4FF4007020640320BDE8DE
:1023D000FC8B206806F0FE0B2A4EC0F810B0204699
:1023E00031464A46434600F0C0F848BB0020019001
:1023F00020684246416901918069494601900198EF
:10240000204600F035F998B9012D08D02068390A26
:10241000016120464946424600F02AF940B9206849
:10242000F9B2016120464946424600F021F950B117
:10243000206C042804D12068016841F40071016017
:102440000120BDE8FC8B2068002201684B4641F466
:102450008071016020464FF00111CDF8008000F03E
:102460003DF80028ABD120684BF001010161204606
:1024700031464A46434600F078F8002818BF01204C
:10248000BDE8FC8B02000100F8B515460E46044677
:102490004F1C2068406940071ED42046FFF759FFB3
:1024A000C0B9002FF5D0FEF745F916B1401BB04278
:1024B000EFD9206840694007EBD400202021206339
:1024C00084F83D1084F83E0084F83C00206C40F015
:1024D000200020640120F8BD0020F8BD2DE9F04760
:1024E000DDF820909846164604468FB201F47F0529
:1024F00003F1010A1820B5F5803F08BF14202168B8
:1025000008583840C01BB0FA80F04009B04229D1C9
:10251000BAF1000FEED0FEF70DF9B8F1000F03D0BD
:10252000A0EB09004045E5D91820B5F5803F08BF6C
:102530001420216808583840C01BB0FA80F04009C8
:10254000B042D7D100202021206384F83D1084F8C8
:102550003E0084F83C00206C40F020002064012004
:10256000BDE8F0870020BDE8F0872DE9F8439846E4
:10257000914604468FB201F47F05561C2068B5F5DC
:10258000803F0CBF416981693940B94223D041691C
:10259000490523D4002EF1D0FEF7CCF8B9F1000F95
:1025A00003D0A0EB08004845E8D92068B5F5803F86
:1025B0000CBF406980693840B842DFD0002020213C
:1025C000206384F83D1084F83E0084F83C00206CC1
:1025D00040F0200015E00020BDE8F883016841F4D8
:1025E000007101606FF4806141610020202120634F
:1025F00084F83D1084F83E0084F83C00206C40F0E4
:10260000040020640120BDE8F88370B515460E462D
:10261000044620684169490617D44169C90616D4A1
:10262000FEF788F816B1401BB042F2D92068406925
:102630004006EED400202021206384F83D1084F869
:102640003E00206C40F020000CE0002070BD6FF0D8
:102650001001416100202021206384F83D1084F89E
:102660003E00206C2064002084F83C00012070BDF6
:10267000F8B515460E4604464F1C20684069000612
:102680001ED42046FFF765FEC0B9002FF5D0FEF737
:1026900051F816B1401BB042EFD9206840690006DE
:1026A000EBD400202021206384F83D1084F83E0004
:1026B00084F83C00206C40F0200020640120F8BD2C
:1026C0000020F8BD7CB5044641F080008DF807007D
:1026D0002068A188164600221D46FEF725F8A0694D
:1026E0000DF1070101224FF4FA63FFF773FCA069B3
:1026F000FFF737FB0128FAD1A06931462A464FF48B
:10270000FA63FFF767FCA069FFF72BFB0128FAD1FA
:10271000A18820680122FEF707F87CBDB0B50D4600
:102720000121044600F096F80246062D1DD8DFE888
:1027300005F004081C0D1C12170002F0F80200201E
:1027400012E002F0F800421C01200DE002F0F80057
:10275000C21C032008E002F0F800421D052003E03F
:1027600002F0F800821D0620E06120460121BDE84C
:10277000B04000F0CCB900002DE9F0410021044642
:10278000FFF7CCFF864E0A20B047314F204601218B
:102790004FF00108B84705460A20B04745F08002CF
:1027A0007E4D20460121A8476420B047216A20467B
:1027B00000F0D8F894F82A10204600F024F994F894
:1027C0002B10204600F003F920460C212322A847B5
:1027D000204600F04DF994F82410204600F01DF931
:1027E00020461F21FF22A84794F8261094F82500C0
:1027F000490001EB0010C2B220461D21A847204627
:1028000000F090F894F8292020462021A84794F859
:10281000282020462121A84720464021B84740F0E3
:102820003F0220464021A84720460121FFF776FFBE
:102830000A20C4F81C80B04720464221B8474FF414
:10284000CA71122808BFC8210846BDE8F08100BF40
:1028500055280008E0B501F07F018DF80610012130
:1028600000910DF106010DF10703012200F003F8BC
:102870009DF807008CBDF8B50F46044681880068B6
:10288000164600221D46FDF74FFFA0693946324625
:102890004FF4FA63FFF79EFB069EA069FFF761FA0B
:1028A0000128FAD1A069294632464FF4FA63FFF7AE
:1028B000EFFAA069FFF755FA0128FAD1A18820683C
:1028C0000122BDE8F840FDF72FBFF8B50D461221F3
:1028D00017460446FFF7BEFF400601D400261AE063
:1028E00020461321FFF7B6FF064620461021FFF7CA
:1028F000B1FF024620460D2100F009F9BE4288BF13
:102900003E460027B74206D220460021FFF7A2FF2D
:10291000E8550137F6E720461221FF2200F0F7F8CC
:102920003046F8BDB0B5044690F82400012194F873
:10293000255001FA00F001F054F9094B53F8352005
:1029400003EBC5035B6800F0C5FF01F01BF9002134
:102950001028C8BF01212046BDE8B04000F022B8D1
:10296000D8410008F8B50D4E0C46C1F38702062188
:102970000546B0470A4F0520B847A001C2B2284615
:102980000721B0470520B847284608210022B04754
:1029900005203946BDE8F840084700BF0F2B000866
:1029A00031050008B0B50C4626210546FFF752FF59
:1029B00040F00802002C08BF00F0F702284626214C
:1029C00000F0A5F80A20BDE8B040FDF7B1BD2D2903
:1029D00098BF2D21F02928BFF021782904D82D395E
:1029E000052291FBF2F103E01E310A22B1FBF2F164
:1029F00080B52031CAB20B2100F089F80A20BDE869
:102A00008040FDF795BD80B50A46092100F07FF8AA
:102A10000A20BDE88040FDF78BBD70B50C461E2135
:102A20000546FFF717FF06460A20FDF781FD0C2C2F
:102A3000A8BF0C2406F00F00072CD8BF072440EADB
:102A40000410C2B228461E2100F061F80A20FDF7EA
:102A50006FFD2846BDE87040FFF764BF80B50A46A9
:102A6000392100F054F80A20BDE88040FDF760BD30
:102A700010B51E210446FFF7EDFE40F00702204688
:102A80001E2100F044F80A20BDE81040FDF750BDBB
:102A90002DE9F0410C46D0F81C8001211E46174656
:102AA0000546FFF73BFE28460E21FFF7D3FE024600
:102AB00028460D2100F02BF8284622213A4600F046
:102AC00026F82846002122463B46FFF7FBFD284614
:102AD0000321FFF723FE28461221FFF7BBFE000764
:102AE00006D4013E30040AD00120FDF721FDF2E7B3
:102AF00028461221FF2200F00AF8012400E00024F9
:102B000028464146FFF70AFE2046BDE8F081E0B5C1
:102B100041F080018DF8061001218DF80720009109
:102B20000DF106010DF10703012200F001F88CBD43
:102B3000F8B50F46044681880068164600221D46F7
:102B4000FDF7F2FDA069394632464FF4FA63FFF70C
:102B500041FA069EA069FFF704F90128FAD1A0699D
:102B6000294632464FF4FA63FFF734FAA069FFF7BB
:102B7000F8F80128FAD1A18820680122BDE8F840C0
:102B8000FDF7D2BD2DE9F04F85B04FF00009314877
:102B9000CDF810900168304C41F0100101600168DF
:102BA0002E4E01F01001009100990168002241F0C1
:102BB0002001016001684FF0020801F0200100913E
:102BC0000099016841F004010160016801F004010D
:102BD00000910099016841F008010160006802213C
:102BE00000F00800009000982046B04720461021D1
:102BF00001224FF0010BB04704F5806528464FF4E1
:102C0000004101224FF4004AB047154801AE154F6C
:102C1000CDF80C90CDE901B020463146B8471220DE
:102C2000CDF81080CDE902B9019020463146B84771
:102C300028463146CDE90398CDE901ABB8470620D7
:102C400000210022FEF7AEFA0620FEF79DFA05B03D
:102C5000BDE8F08F18100240000801402907000865
:102C6000000011107905000810B50B480B4B0C4CF7
:102C700000214FF48042C0E90043C0E90211C0E9DD
:102C80000421C0E906110162FDF75AFD18B1BDE843
:102C90001040FDF748BC10BDA8010020A08601002F
:102CA000005400401CB52C48144B4FF480714FF079
:102CB000FF320024C0E9003281608DF80640ADF893
:102CC00004400094FEF7FCFE08B1FDF72CFC2248FE
:102CD00001A900228DF80640ADF80440FEF7C2FFBE
:102CE00008B1FDF720FC0648694600901A4800220A
:102CF000FEF756FF08B1FDF716FC1CBD002800408A
:102D000001010100B0B50E4800210E4B0A244FF41A
:102D10008272C0E90811C0E90A1410244FF400754A
:102D2000C0E90032C0E90211C0E90411C0E906544B
:102D3000FFF71AF818B1BDE8B040FDF7F4BBB0BD1D
:102D40001002002000300140FEE7FEE7704700005F
:102D50000148FEF7A9BD00BFFC010020014609287B
:102D600028BF0921411A0931CAB20A23B2FBF3F282
:102D700002EB8203A1EB4303591A084440EA021014
:102D8000C0B27047B0B50446FDF7D4FC05462068D4
:102D90004168890607D4FDF7CDFC401BB0F57A7F6A
:102DA000F5D90320B0BD416841F010014160002019
:102DB000B0BDB0B504460068416821F01001416023
:102DC000FDF7B8FC054620684068800607D4FDF78B
:102DD000B1FC401BB0F57A7FF5D90320B0BD0020CF
:102DE000B0BD10B502689169D069936983EA0104A6
:102DF00024041CBFD069194680B240EA014010BDCE
:102E000010B517234B430924B3FBF4F302441A44CF
:102E100002F2D472022907D800F2CF706421B0FB0D
:102E2000F1F1C1EB900107E000F5FA606421B0FB1D
:102E3000F1F1C1EB900102394FF4C873B0FBF3F02C
:102E4000084410440721B0FBF1F1C1EBC101401A65
:102E500010BDB0B50D460446FFF794FF08B1012040
:102E6000B0BD2068290C0162A9B241622046FFF77B
:102E7000A0FF002818BF0120B0BDB0B50D46044624
:102E8000FFF780FF08B10120B0BD2068290C8161E7
:102E9000A9B2C1612046FFF78CFF002818BF0120AE
:102EA000B0BDBCB5044640680B46B0F5827F13D177
:102EB000A068B0F5004F02D0B0F5806F0CD121684A
:102EC000B0F5806F0D6825F040050D6004D10092CB
:102ED00000252046012103E00025204680210092A4
:102EE000002200F023F820B1606D032540F020009F
:102EF00060652846BCBD7CB50D4616460092022191
:102F000001222B46044600F011F840B920468021EA
:102F100000222B460096002600F008F820B1606DD4
:102F2000032640F02000606530467CBD2DE9F84363
:102F3000089F1C4615460E468046FDF7FBFB381AD7
:102F40000719FDF7F7FB8146274801340068C0F3F5
:102F5000CB3078430090D8F8000081683140891B5D
:102F6000B1FA81F14909A94210D0002CF5D0FDF742
:102F7000E1FBA0EB0900B8420BD2009800990028B1
:102F8000A1F10101009108BF0746E4E70020BDE878
:102F9000F883D8E900014268B1F5827F22F0E002AF
:102FA00042600BD1D8F80810B1F5004F02D0B1F54E
:102FB000806F03D1016821F040010160D8F828102A
:102FC000B1F5005F07D1016821F40051016001688B
:102FD00041F400510160002088F85000012088F879
:102FE00051000320BDE8F8830C0000207047FEF775
:102FF00071B8B0B594B00AAC201D2421FDF763F977
:1030000005A81421FDF75FF9002501201021119575
:103010001090CDE90E010A200A902046CDE9035513
:10302000CDE90155FEF7A6FA18B1EFF3108072B69C
:10303000FEE74FF48060099508900F20CDE9065512
:10304000059005A80021FEF7B5F918B1EFF310803F
:1030500072B6FEE74FF4007002900120019001A8C3
:10306000FEF730F918B1EFF3108072B6FEE714B036
:10307000B0BD70472DE9FF410F460446FDF75AFBEE
:10308000234E054606F1080840460521FFF746FB9A
:10309000FDF750FB401BB84218D230780128F7D119
:1030A000002006F8080B694630461022FFF70DFC99
:1030B0009DF800106422FF294FF0640108BF3221FF
:1030C000002808BF11460846FDF732FA03250226FC
:1030D000C82795B1204640F6B831667000F0FAF97D
:1030E00068B9FDF753F890FBF7F101FB170000F505
:1030F0009670FDF71DFA013DEBE7002004E0404625
:103100000021FFF70BFB012004B0BDE8F08100BFF8
:1031100070010020F8B5044600F084F8C00703D120
:103120004FF47A70FDF704FA0525FF26C827D5B1BC
:103130006670FDF72BF890FBF7F101FB1700643088
:10314000FDF7F6F9204640F6B83100F035FA60B9DF
:10315000FDF71CF890FBF7F101FB17006430FDF759
:10316000E7F9013DE3E70020F8BD0120F8BDFEE7E7
:1031700010B5074C00F00F032344044AB0F1FF3FA1
:10318000C8BF83180801187010BD00BF00E400E03C
:1031900014ED00E06FF0010202EB4000884284BFB2
:1031A000401A7047401A024909880844704700BF16
:1031B00012000020194AB0F90210127802EB8202C4
:1031C00052008A421DDB164A127802EB820252003C
:1031D0008A4216DCF44A8188127802EB820252009D
:1031E0008A420ED3F14A127802EB820252008A42DE
:1031F00007D8C188EE48007800EB80004000884284
:1032000001D201207047EB48007800EB80020020DB
:10321000B1EB420F38BF0120704700BF1000002003
:10322000A40100201CB50D4C01A920460022FEF788
:1032300085FB694620460022FEF752FB9DF80410EC
:103240009DF805204FF461609DF806304843C2EBBD
:10325000021100EB810018441CBD00BFFC010020DE
:10326000FDF742FFFFF7C5FEFFF78CFCFFF74AFDB5
:10327000FFF718FDFFF7F8FC00F0EEF87348FFF7D2
:103280007BFA924DC8280AD1062474B1284602213F
:10329000FDF742FA6420FDF74BF9013CF5E72846BB
:1032A00002210122FDF740FAFEE768480521A94600
:1032B000FFF734FA664F4FF40070388107F10805C4
:1032C0004FF4FA744FF001083878E8B9284640F610
:1032D000B831FFF7CFFE68B1032687F80080002ED3
:1032E000F2D048460221FDF717FAC820FDF720F971
:1032F000013EF4E7FCF74AFF90FBF4F101FB1400F8
:10330000C830FDF715F9DFE7DFF84881387AB8F8FB
:103310000010FFF73FFF4FF47A7A00FB0AF0012418
:103320004FF4FA7B786042F2117188420FDB484615
:10333000022101227C704E46FDF7F6F9052000F0CF
:10334000B1F9484602210022FDF7EEF913E0022010
:1033500078704846022101224E46FDF7E5F978686B
:1033600090FBFAF000F09EF9484602210022FDF79A
:10337000DBF900207860FDF7DDF9064603207C725A
:103380007870284600F0A2F978680644FDF7D2F973
:10339000301A41F28831401A78602846FFF70AFF58
:1033A000012814D12846FFF7B5FE00284CD0484626
:1033B00002210122BC704E46FDF7B6F9C820FDF788
:1033C000B7F8484602210022FDF7AEF934E07868EC
:1033D000002839DCFDF7AEF90646FDF7ABF9801B96
:1033E000B0F57A7F30D87C72FCF7D0FE90FBFBF111
:1033F00001FB1B0000F5FA71284600F0DDF840B92A
:10340000B8F80010387AFFF7C5FE00FB0AF07860C4
:10341000E3E70220B8704846022101224E46FDF73C
:1034200083F96420FDF784F8484602210022FDF765
:103430007BF96420FDF77CF8B8F80010387AFFF7C4
:10344000A9FE00FB0AF0786078686CE7780100203C
:103450005C0100207401002070B58CB001AD2846DD
:1034600000F026F9874E294606F108042046282256
:10347000FCF7E4FE012040F2077186F82E00B185CA
:1034800040F2B111B16210493162B0830F484FF47C
:103490000041B061B18200F5806131611021B181DC
:1034A000B0600B4830632046FFF766F9C82809D1A1
:1034B00020461221FFF7D2FA20460021FFF72EF90D
:1034C0000CB070BDFEE700BF1002002000080140F4
:1034D0000800F9642DE9FF476A4D814605F10808A7
:1034E0000E46404649460A224FF47A73FFF7D0FA57
:1034F0004FF0000A4046052185F800A0FFF70EF9BD
:10350000FDF718F907466C46FDF714F9C01BB042E9
:1035100040D228780128F7D1284600F808AB214688
:103520001022FFF7D2F90028EED09DF80000FF2806
:10353000EAD199F800009DF801108142E4D19DF88C
:1035400002009DF803109DF804209DF8053089F8CD
:1035500000004D48012403704C489DF8063003706C
:103560004B489DF8073003704A489DF808300370B7
:1035700049489DF80930037048489DF80A300370A7
:1035800042EA01206860BDF80B00454900BA000C12
:10359000088000E0002440460021FFF7BFF82046E5
:1035A00004B0BDE8F08700BF08000020090000203B
:1035B0000A0000200B0000202DE9FF47314E814614
:1035C00006F108080D46404649460A224FF47A7330
:1035D000FFF75EFA4FF0000A4046052186F800A08A
:1035E000FFF79CF8FDF7A6F807466C46FDF7A2F832
:1035F000C01BA8423CD230780128F7D1304600F8F1
:1036000008AB21461022FFF760F90028EED09DF8A4
:103610000000FF28EAD199F800009DF801108142CE
:10362000E4D119489DF804309DF80540037017480F
:103630009DF80630047016489DF802100370154876
:103640009DF807309DF80320037013489DF808305B
:103650000124037011489DF80930037042EA0120EB
:103660007060BDF80A000E4900BA000C088000E046
:10367000002440460021FFF751F8204604B0BDE881
:10368000F08700BF7001002010000020A40100207E
:1036900008000020090000200A0000200B00002084
:1036A000120000204FF47A714843FCF741BF00003C
:1036B000012180F8261040F20771818440F2B11197
:1036C00001620149816270470800FF64BCB504468D
:1036D0000020CDE9000001A86946FCF78BFE0F4DE4
:1036E0000198294600F0ACFC00F08EFC6080009848
:1036F000294600F0A5FC00F087FCA080FCF746FD01
:1037000004212181142190FBF1F101EB8101A0EB57
:10371000810000F23510E080BCBD00BF00002041F8
:1037200021F0004201F00043A2F16052B2F5801F87
:1037300028BFD2F17F6C0BD95FEA001C43EAC202BA
:1037400042EB507018BF704728BF20F0010070474F
:10375000B2F5801FBCBF184670474FEA410C1CF5FC
:10376000001F02D2084600F032BD70B500F00EFB1B
:1037700000000089FFF7F6BF4FF00040A0F5800081
:103780007047000010B591EA030F48BF83F0004373
:1037900000F15883841A71EB030C05D2121943EB24
:1037A0000C03001B61EB0C014FEA1154A4EB135CFA
:1037B000DFF81CE11EEA430F18BF9EEA445F73D096
:1037C00021EA045123EA0E0343F48013DCF1200EB6
:1037D00032D322FA0CFE10EB0E0023FA0CFE41EB62
:1037E0000E01CCF1200E03FA0EFE10EB0E00CCF110
:1037F000200E51F10001B1F5801F32D201EB0451CE
:1038000012FA0EF2BDE8104058BF7047401C38BF96
:103810005FEA420218BF7047002814BF20F0010081
:1038200041F100014FEA410313F5001F38BF704713
:10383000A1F1C04100F0F8BA012A43EB0302ACF158
:10384000200CDCF11F0E32BF4FF0000E23FA0CF3F8
:1038500010EB030041EB0451B4EB115FD0D0A1EBAE
:10386000045101F58011490801EB04515FEA300071
:103870000ED350F1000038BF12FA0EFE08D1BDE899
:103880001040C9E7401C38BF5FEA4202CAD1C3E713
:10389000BDE810404FEA410313F5001F38BF7047E1
:1038A000A1F1C04100F0C0BA9EEA445F08D011EA1D
:1038B0005E0FBDE8104004BF01F0004100207047DA
:1038C000BDE8104070B500F061FA00BF64FBBE3E79
:1038D0000000E0FF2DE9C04130B4DFF8A0C23CEAAF
:1038E000111418BF3CEA131400F0EC801CEA111408
:1038F00081EA030544EAD57418BF1CEA131500F0E9
:10390000C780A4EB050404F17F7404F500344FF084
:10391000004545EAC12145EAC32341EA505143EA43
:1039200052534FEAC0204FEAC222994208BF904248
:1039300000F09C804FEA13650FF24016765D4FEA67
:10394000134506FB05F7C7F1807706FB07F74FEA3B
:10395000D737A7FB03687642A7FB06CEC8F58038A9
:1039600038BFA8F1010807FB08E6A6FB028C4FF060
:10397000000EE6FB03CEDCF1000CCEF1004E38BFAA
:10398000AEF1010EA6FB0C584FF00007E6FB0E87C8
:10399000A1FB08C6A0FB07CE16EB0E064FF00005F4
:1039A00045F10005E1FB076515F1E04E7EBFA4F58A
:1039B00080345FEA46066D4116F1800745F1000547
:1039C0004FEA172747EA05674FEA15254FEA0666CB
:1039D000A6F1DE46B6F1805F1FD9384605EBC4710B
:1039E00024F0010C01EB0C11BCF1FE6F02D8F0BC0D
:1039F000BDE8008124425CBF01F5801E9EEAC47FC1
:103A000002D4F0BCBDE80081244238D4A1F1C04109
:103A1000F0BCBDE8004100F007BA4FEAD02040EA10
:103A200041504FEAD1214FEAD22242EA43524FEAB3
:103A3000D323A7FB028607FB036605FB02661EEA8B
:103A40000E0F58BFA6EB0056B6EB00564FEA520ECB
:103A50004EEAC37E18EB0E0E56EB530EBDD518EB97
:103A600002085E417F1C55F10005B6E74FF4801552
:103A70004FF000074FF000064FF00008ADE701F1EE
:103A8000C04101F000414FF00000F0BCBDE80081F2
:103A90000CEA131511EA0C1F00D00CE013EA0C1FFE
:103AA00000F025804FF0000081EA030101F00041A1
:103AB000F0BCBDE80081F0BCBDE8004181EA030133
:103AC00000F0B2B9F0BCBDE8004170B500F05EF99D
:103AD000097EFC3E00F007B84FF0000081EA0301C8
:103AE00001F00041704781EA030100F09DB9F0BC8C
:103AF000BDE8004122494FF000007047FFFDFBF98F
:103B0000F7F5F4F2F0EEEDEBE9E8E6E4E3E1E0DE10
:103B1000DDDBDAD8D7D5D4D3D1D0CFCDCCCBCAC882
:103B2000C7C6C5C4C2C1C0BFBEBDBCBBBAB9B8B7A9
:103B3000B6B5B4B3B2B1B0AFAEADACABAAA9A8A89C
:103B4000A7A6A5A4A3A3A2A1A09F9F9E9D9C9C9B6A
:103B50009A99999897979695959493939291919015
:103B60008F8F8E8E8D8C8C8B8B8A898988888787A6
:103B70008685858484838382828181800000FF071B
:103B80000000F87F4FEA41034FEA5353A3F58063E7
:103B9000D3F11E03C8BFD3F1210C0CDD4FF000425E
:103BA00042EAC12242EA505232FA03FC8CEAE17C3A
:103BB000ACEBE1707047102BC4BF0020704703F5D9
:103BC000787CBCF1FF3F04D06FF0004282EA210014
:103BD000704770B500F0DAF84992248000207047F1
:103BE000F2E710F0004248BF4042B0FA80F310FA0A
:103BF00003F10AD0C3F11D0303F5806302EB035206
:103C00004FEA415002EBD12170474FF0000070475E
:103C1000B0FA80F310FA03F10AD0C3F11D0303F5E3
:103C200080634FEA03524FEA415002EBD1217047C3
:103C30004FF000007047000070B5DFF848C11CEA83
:103C4000111E1EBF1CEA13159EEA0C0F95EA0C0FFD
:103C500000F06F8081EA03044EEAD47EAE4421EA8C
:103C60004C1123EA4C1341F4801143F48013AEF15C
:103C70007F7EA1FB024CA0FB0365361955EB0C05BA
:103C8000A1FB034C4CF10003A0FB021C16EB0C063D
:103C9000654153F10003094218BF46F0010613F4D1
:103CA000007F0BD14FEA03314FEA053041EA15514D
:103CB00040EA165034036FF003020AE04FEAC321D2
:103CC0004FEAC52041EA555140EA5650F4026FF0E0
:103CD000020202EB2E4201EB025585EACE710AD0B8
:103CE0005FEA440C18BF24F0004450F1000041F199
:103CF000000120EAD47040F2FE7C624500D270BD23
:103D0000A84214BF4FF080444FF04044002E08BF3B
:103D10000024BEF1806FA8BFA1F1C041BDE8704092
:103D200080F2828001F1C04101F000414FF00000BB
:103D300070470CEA13159EEA0C0F18BF95EA0C0F9A
:103D400006D081EA030E4FF000000EF0004170BD76
:103D500000F01CF88900013E00F007B800F009B837
:103D60004FEA430C5FEA5C5C08D081EA030100F093
:103D70005BB84FEA410C5FEA5C5CF6D102494FF058
:103D8000000070470000FF070000F87F0EF1020EF0
:103D90002EF0030E5EF8046B364205D4012A43EB85
:103DA000030515F5001F12D8012841EB010C1CF585
:103DB000001F0CD80ED14FEAD17C0CEB4C0C0CF14F
:103DC000020C15F5001F08BF4CEBD37C04E04FF04C
:103DD000080C01E04FEAD37C0CEB4C0526FA05F603
:103DE00006F00706B6F1040C06D20EEB860CBDE811
:103DF00070404CF0010C6047DFE80CF0090B020248
:103E00004FF00041A1F500214FF0000070BD1946B0
:103E10001046012851EB010418BFD4F5001484BFEB
:103E2000002001F0004170BD0808A0F500114FEA24
:103E30003101704710B591EA030F48BF83F000438A
:103E40003FF5A8AC841A71EB030C07D28CF0004C40
:103E5000121943EB0C03001B61EB0C014FEA1154E8
:103E6000A4EB135CDFF89CE11EEA430F18BF9EEA47
:103E7000445F00F0B08021EA045123EA6E0352420D
:103E8000C3EB6E0338BF5B1EDCF1200E25D322FA94
:103E90000CFE10EB0E0043FA0CFE41EB0E01CCF1D0
:103EA000200E03FA0EFE10EB0E00CCF1200E51F1A5
:103EB000000129D401EB045112FA0EF2BDE81040C2
:103EC00058BF7047401C1CBFB2F1004F704700281C
:103ED0000CBF491C20F00100704712EB020E43EBAF
:103EE000030218BF4FF0010E4EEA4202ACF1200C63
:103EF000DCF11E0E54D943FA0CFE10EB0E00CCF18F
:103F00001E0E51F1FF31D5D50EF1010E12FA0EFE43
:103F1000404141EB010101EB445C5FEA5C5C10D97C
:103F200001EB045110EBDE7038BFBEF1004FBDE86D
:103F3000104018BF704700280CBF491C20F001003A
:103F4000704730D24FEAD42C24F4006411F50011EC
:103F50001BD0B1FA81F20B3AA41AA41ED2F12003AD
:103F6000914030FA03F31943904001EBCC7101EB1F
:103F70000451002CBDE81040A8BF704701F1C041BA
:103F800001F000414FF000007047B0FA80F310FAE2
:103F900003F100D110BDE41A173C4805C90AE4E753
:103FA00001EB045110BD49104FEA300001EB045100
:103FB000BDE8104002E04FF0000170474A0008BF22
:103FC0000042F8D0B2F5001F28BF704701F0004151
:103FD0004FF0000070479EEA445F07D011EA5E0F81
:103FE000BDE8104004BF002100207047BDE810402C
:103FF00070B5FFF7CBFE00BF40DFF63E104683F002
:10400000004170470000E0FF41000B0ED3F19E021B
:1040100008D950F400034FEA032323FA02F048BF03
:104020004042704710B500F08CF800BF49922480E0
:10403000002070476FF0004282EA200070470000C5
:104040004FF47F0C1CEAD0121EBF1CEAD11392EA77
:104050000C0F93EA0C0F00F0478090EA010F48BF65
:1040600042F480724FF0004C4CEA00204CEA0121EF
:1040700002EB0302A0FB0113A2F50002002918BF06
:1040800043F001035B0028BF4FEA330342EB2242B7
:104090005FEA132C4CEBC2502EBFBCEB436FB2F562
:1040A0007C0F70474FEA036CBCF1004F08BF20F053
:1040B0000100B2F57C0F38BF70470BD582F0FF02CC
:1040C00012F5803FC8BF704700F1C040D8BF00F074
:1040D0000040704700F5000C5FEA4C0C48BF704789
:1040E000B0F1C04000F073B80CEAD11390EA010FB0
:1040F00048BF42F48072624538BF634504D280EA0B
:10410000010000F00040704710B500F01AF800BF41
:104110008900013E00F007B800F009B85FEA410CE1
:104120005FEA1C6C08D080EA010000F050B85FEA3A
:10413000400C5FEA1C6CF6D14FF00040A0F5800007
:1041400070470EF1020E2EF0030E5EF8044B24426F
:1041500004D44FEA4102B2F17F4F11D84FEA400335
:10416000B3F17F4F0CD80ED14FEAD07C0CEB4C0C46
:104170000CF1020CB2F17F4F08BF4CEBD17C04E094
:104180004FF0080C01E04FEAD17C0CEB4C0324FA11
:1041900003F404F00704B4F1040C06D20EEB840C13
:1041A000BDE810404CF0010C6047DFE80CF0070858
:1041B00002024FF00040A0F5800010BD084642000A
:1041C00018BFD2F1807288BF00F0004010BDFF21FF
:1041D00041EAD050C00570473333333333331F4087
:1041E000CDCCCCCCCCCC24403333333333332F4001
:1041F000CDCCCCCCCCCC34400000000000403F40C3
:104200009A99999999D944400000000000404F4084
:104210000000000000405F400000000000406F40D0
:104220000000000000407F4000000000000000008F
:10423000010203040607080900000000010203044C
:10424000604200080000002018000000280100085B
:1042500078420008180000205808000044010008B7
:1042600001000000100000005A0A501400127A00E9
:084270003C002A0000000000E0
:04000005080000ED02
:00000001FF
